{
  "_format": "hh-sol-artifact-1",
  "contractName": "KitaiPay",
  "sourceName": "contracts/KitaiPay.sol",
  "abi": [
    {
      "inputs": [],
      "stateMutability": "nonpayable",
      "type": "constructor"
    },
    {
      "inputs": [],
      "name": "KitaiPay__InternalContractError",
      "type": "error"
    },
    {
      "inputs": [],
      "name": "KitaiPay__InvalidPaymentId",
      "type": "error"
    },
    {
      "inputs": [],
      "name": "KitaiPay__InvalidSignature",
      "type": "error"
    },
    {
      "inputs": [],
      "name": "KitaiPay__NotASenderOfThisPayment",
      "type": "error"
    },
    {
      "inputs": [],
      "name": "KitaiPay__NotEnoughBalance",
      "type": "error"
    },
    {
      "inputs": [],
      "name": "KitaiPay__OnlyContractOwnerAllowed",
      "type": "error"
    },
    {
      "inputs": [],
      "name": "KitaiPay__OnlyPaymentOwnerAllowed",
      "type": "error"
    },
    {
      "inputs": [],
      "name": "KitaiPay__PaymentAlreadyCancelled",
      "type": "error"
    },
    {
      "inputs": [],
      "name": "KitaiPay__PaymentAlreadyCompleted",
      "type": "error"
    },
    {
      "inputs": [],
      "name": "KitaiPay__ShareAlreadyAdded",
      "type": "error"
    },
    {
      "inputs": [],
      "name": "KitaiPay__ShareNotAdded",
      "type": "error"
    },
    {
      "anonymous": false,
      "inputs": [
        {
          "indexed": true,
          "internalType": "uint256",
          "name": "paymentId",
          "type": "uint256"
        }
      ],
      "name": "PaymentCancelled",
      "type": "event"
    },
    {
      "anonymous": false,
      "inputs": [
        {
          "indexed": true,
          "internalType": "uint256",
          "name": "paymentId",
          "type": "uint256"
        }
      ],
      "name": "PaymentCompleted",
      "type": "event"
    },
    {
      "anonymous": false,
      "inputs": [
        {
          "indexed": true,
          "internalType": "uint256",
          "name": "paymentId",
          "type": "uint256"
        },
        {
          "indexed": true,
          "internalType": "address",
          "name": "owner",
          "type": "address"
        }
      ],
      "name": "PaymentCreated",
      "type": "event"
    },
    {
      "anonymous": false,
      "inputs": [
        {
          "indexed": true,
          "internalType": "uint256",
          "name": "paymentId",
          "type": "uint256"
        },
        {
          "indexed": true,
          "internalType": "address",
          "name": "user",
          "type": "address"
        }
      ],
      "name": "PaymentShareAdded",
      "type": "event"
    },
    {
      "anonymous": false,
      "inputs": [
        {
          "indexed": true,
          "internalType": "uint256",
          "name": "paymentId",
          "type": "uint256"
        },
        {
          "indexed": true,
          "internalType": "address",
          "name": "user",
          "type": "address"
        }
      ],
      "name": "PaymentShareRemoved",
      "type": "event"
    },
    {
      "inputs": [
        {
          "internalType": "uint256",
          "name": "paymentId",
          "type": "uint256"
        },
        {
          "internalType": "bytes32",
          "name": "signature",
          "type": "bytes32"
        }
      ],
      "name": "addPaymentSignature",
      "outputs": [],
      "stateMutability": "nonpayable",
      "type": "function"
    },
    {
      "inputs": [
        {
          "internalType": "uint256",
          "name": "paymentId",
          "type": "uint256"
        }
      ],
      "name": "addUserShare",
      "outputs": [],
      "stateMutability": "payable",
      "type": "function"
    },
    {
      "inputs": [
        {
          "internalType": "uint256",
          "name": "paymentId",
          "type": "uint256"
        }
      ],
      "name": "cancelPayment",
      "outputs": [],
      "stateMutability": "nonpayable",
      "type": "function"
    },
    {
      "inputs": [
        {
          "internalType": "uint256",
          "name": "paymentId",
          "type": "uint256"
        },
        {
          "components": [
            {
              "components": [
                {
                  "internalType": "address",
                  "name": "user",
                  "type": "address"
                },
                {
                  "internalType": "address",
                  "name": "token",
                  "type": "address"
                },
                {
                  "internalType": "uint256",
                  "name": "amount",
                  "type": "uint256"
                }
              ],
              "internalType": "struct PaymentInputUnit[]",
              "name": "senders",
              "type": "tuple[]"
            },
            {
              "components": [
                {
                  "internalType": "address",
                  "name": "user",
                  "type": "address"
                },
                {
                  "internalType": "address",
                  "name": "token",
                  "type": "address"
                },
                {
                  "internalType": "uint256",
                  "name": "amount",
                  "type": "uint256"
                }
              ],
              "internalType": "struct PaymentInputUnit[]",
              "name": "receivers",
              "type": "tuple[]"
            }
          ],
          "internalType": "struct CreatePaymentInput",
          "name": "input",
          "type": "tuple"
        },
        {
          "internalType": "string",
          "name": "description",
          "type": "string"
        },
        {
          "internalType": "bool",
          "name": "hasAddedShare",
          "type": "bool"
        }
      ],
      "name": "createPayment",
      "outputs": [],
      "stateMutability": "payable",
      "type": "function"
    },
    {
      "inputs": [
        {
          "internalType": "uint256",
          "name": "paymentId",
          "type": "uint256"
        },
        {
          "components": [
            {
              "components": [
                {
                  "internalType": "address",
                  "name": "user",
                  "type": "address"
                },
                {
                  "internalType": "address",
                  "name": "token",
                  "type": "address"
                },
                {
                  "internalType": "uint256",
                  "name": "amount",
                  "type": "uint256"
                }
              ],
              "internalType": "struct PaymentInputUnit[]",
              "name": "senders",
              "type": "tuple[]"
            },
            {
              "components": [
                {
                  "internalType": "address",
                  "name": "user",
                  "type": "address"
                },
                {
                  "internalType": "address",
                  "name": "token",
                  "type": "address"
                },
                {
                  "internalType": "uint256",
                  "name": "amount",
                  "type": "uint256"
                }
              ],
              "internalType": "struct PaymentInputUnit[]",
              "name": "receivers",
              "type": "tuple[]"
            }
          ],
          "internalType": "struct CreatePaymentInput",
          "name": "input",
          "type": "tuple"
        }
      ],
      "name": "ensureHashValidity",
      "outputs": [],
      "stateMutability": "view",
      "type": "function"
    },
    {
      "inputs": [
        {
          "internalType": "uint256",
          "name": "paymentId",
          "type": "uint256"
        }
      ],
      "name": "getPaymentDetails",
      "outputs": [
        {
          "components": [
            {
              "internalType": "address",
              "name": "owner",
              "type": "address"
            },
            {
              "internalType": "uint256",
              "name": "paymentId",
              "type": "uint256"
            },
            {
              "internalType": "string",
              "name": "description",
              "type": "string"
            },
            {
              "internalType": "bool",
              "name": "completed",
              "type": "bool"
            },
            {
              "internalType": "bool",
              "name": "cancelled",
              "type": "bool"
            },
            {
              "internalType": "uint256",
              "name": "paymentsCompleted",
              "type": "uint256"
            }
          ],
          "internalType": "struct Payment",
          "name": "",
          "type": "tuple"
        }
      ],
      "stateMutability": "view",
      "type": "function"
    },
    {
      "inputs": [
        {
          "internalType": "uint256",
          "name": "paymentId",
          "type": "uint256"
        },
        {
          "internalType": "address",
          "name": "receiver",
          "type": "address"
        }
      ],
      "name": "getPaymentReceiverItems",
      "outputs": [
        {
          "components": [
            {
              "internalType": "address",
              "name": "token",
              "type": "address"
            },
            {
              "internalType": "uint256",
              "name": "amount",
              "type": "uint256"
            }
          ],
          "internalType": "struct PaymentItem[]",
          "name": "",
          "type": "tuple[]"
        }
      ],
      "stateMutability": "view",
      "type": "function"
    },
    {
      "inputs": [
        {
          "internalType": "uint256",
          "name": "paymentId",
          "type": "uint256"
        }
      ],
      "name": "getPaymentReceivers",
      "outputs": [
        {
          "internalType": "address[]",
          "name": "",
          "type": "address[]"
        }
      ],
      "stateMutability": "view",
      "type": "function"
    },
    {
      "inputs": [
        {
          "internalType": "uint256",
          "name": "paymentId",
          "type": "uint256"
        },
        {
          "internalType": "address",
          "name": "sender",
          "type": "address"
        }
      ],
      "name": "getPaymentSenderItems",
      "outputs": [
        {
          "components": [
            {
              "internalType": "address",
              "name": "token",
              "type": "address"
            },
            {
              "internalType": "uint256",
              "name": "amount",
              "type": "uint256"
            }
          ],
          "internalType": "struct PaymentItem[]",
          "name": "",
          "type": "tuple[]"
        }
      ],
      "stateMutability": "view",
      "type": "function"
    },
    {
      "inputs": [
        {
          "internalType": "uint256",
          "name": "paymentId",
          "type": "uint256"
        },
        {
          "internalType": "address",
          "name": "sender",
          "type": "address"
        }
      ],
      "name": "getPaymentSenderStatus",
      "outputs": [
        {
          "internalType": "bool",
          "name": "",
          "type": "bool"
        }
      ],
      "stateMutability": "view",
      "type": "function"
    },
    {
      "inputs": [
        {
          "internalType": "uint256",
          "name": "paymentId",
          "type": "uint256"
        }
      ],
      "name": "getPaymentSenders",
      "outputs": [
        {
          "internalType": "address[]",
          "name": "",
          "type": "address[]"
        }
      ],
      "stateMutability": "view",
      "type": "function"
    },
    {
      "inputs": [
        {
          "internalType": "uint256",
          "name": "paymentId",
          "type": "uint256"
        }
      ],
      "name": "returnUserShare",
      "outputs": [],
      "stateMutability": "nonpayable",
      "type": "function"
    },
    {
      "inputs": [
        {
          "internalType": "uint256",
          "name": "paymentId",
          "type": "uint256"
        }
      ],
      "name": "sendReceiversShare",
      "outputs": [],
      "stateMutability": "nonpayable",
      "type": "function"
    }
  ],
  "bytecode": "0x60a060405234801561001057600080fd5b503373ffffffffffffffffffffffffffffffffffffffff1660808173ffffffffffffffffffffffffffffffffffffffff168152505060805161353261006060003960006125b501526135326000f3fe6080604052600436106100c25760003560e01c8063734c54c81161007f5780639e70df21116100595780639e70df211461025a578063b15b622914610297578063db27c3a4146102d4578063fc43b82114610311576100c2565b8063734c54c8146101b757806379c1d683146101f45780638422927d14610231576100c2565b80630e8503ca146100c7578063115b6adb146101045780632ea79632146101205780634e8114c21461014957806351d2110d146101655780635cf422d41461018e575b600080fd5b3480156100d357600080fd5b506100ee60048036038101906100e99190612732565b61033a565b6040516100fb919061286e565b60405180910390f35b61011e60048036038101906101199190612890565b610453565b005b34801561012c57600080fd5b5061014760048036038101906101429190612b0c565b610954565b005b610163600480360381019061015e9190612c55565b610c2c565b005b34801561017157600080fd5b5061018c60048036038101906101879190612890565b6111ce565b005b34801561019a57600080fd5b506101b560048036038101906101b09190612890565b611572565b005b3480156101c357600080fd5b506101de60048036038101906101d99190612890565b611982565b6040516101eb9190612da3565b60405180910390f35b34801561020057600080fd5b5061021b60048036038101906102169190612890565b611a2c565b6040516102289190612da3565b60405180910390f35b34801561023d57600080fd5b5061025860048036038101906102539190612890565b611ad6565b005b34801561026657600080fd5b50610281600480360381019061027c9190612890565b611f5b565b60405161028e9190612edc565b60405180910390f35b3480156102a357600080fd5b506102be60048036038101906102b99190612732565b6120c2565b6040516102cb919061286e565b60405180910390f35b3480156102e057600080fd5b506102fb60048036038101906102f69190612732565b6121db565b6040516103089190612f0d565b60405180910390f35b34801561031d57600080fd5b5061033860048036038101906103339190612f5e565b61224c565b005b6060610345836122c8565b6003600084815260200190815260200160002060008373ffffffffffffffffffffffffffffffffffffffff1673ffffffffffffffffffffffffffffffffffffffff168152602001908152602001600020805480602002602001604051908101604052809291908181526020016000905b8282101561044757838290600052602060002090600202016040518060400160405290816000820160009054906101000a900473ffffffffffffffffffffffffffffffffffffffff1673ffffffffffffffffffffffffffffffffffffffff1673ffffffffffffffffffffffffffffffffffffffff168152602001600182015481525050815260200190600101906103b5565b50505050905092915050565b61045c816122c8565b610465816123cf565b6004600082815260200190815260200160002060003373ffffffffffffffffffffffffffffffffffffffff1673ffffffffffffffffffffffffffffffffffffffff16815260200190815260200160002060009054906101000a900460ff16156104fa576040517f444be25c00000000000000000000000000000000000000000000000000000000815260040160405180910390fd5b60006003600083815260200190815260200160002060003373ffffffffffffffffffffffffffffffffffffffff1673ffffffffffffffffffffffffffffffffffffffff168152602001908152602001600020805480602002602001604051908101604052809291908181526020016000905b828210156105fe57838290600052602060002090600202016040518060400160405290816000820160009054906101000a900473ffffffffffffffffffffffffffffffffffffffff1673ffffffffffffffffffffffffffffffffffffffff1673ffffffffffffffffffffffffffffffffffffffff1681526020016001820154815250508152602001906001019061056c565b5050505090508060008151811061061857610617612f9e565b5b60200260200101516020015134101561065d576040517f5b42253300000000000000000000000000000000000000000000000000000000815260040160405180910390fd5b3073ffffffffffffffffffffffffffffffffffffffff166108fc8260008151811061068b5761068a612f9e565b5b6020026020010151602001519081150290604051600060405180830381858888f193505050501580156106c2573d6000803e3d6000fd5b506000600190505b81518110156107de5760008282815181106106e8576106e7612f9e565b5b60200260200101516000015190508073ffffffffffffffffffffffffffffffffffffffff166323b872dd333086868151811061072757610726612f9e565b5b6020026020010151602001516040518463ffffffff1660e01b815260040161075193929190612feb565b6020604051808303816000875af1158015610770573d6000803e3d6000fd5b505050506040513d601f19601f820116820180604052508101906107949190613037565b6107ca576040517f5b42253300000000000000000000000000000000000000000000000000000000815260040160405180910390fd5b5080806107d690613093565b9150506106ca565b5060016004600084815260200190815260200160002060003373ffffffffffffffffffffffffffffffffffffffff1673ffffffffffffffffffffffffffffffffffffffff16815260200190815260200160002060006101000a81548160ff0219169083151502179055506001600080848152602001908152602001600020600401600082825461086e91906130db565b925050819055506002600083815260200190815260200160002080549050600080848152602001908152602001600020600401540361090c576108b0826111ce565b600160008084815260200190815260200160002060030160006101000a81548160ff021916908315150217905550817f6bef1b5e95b741d6e665eb9b5c2d3e1203c46a771451055a9d41e0b8ff4510b760405160405180910390a25b3373ffffffffffffffffffffffffffffffffffffffff16827fc490c4a7ebe53cd5e96597ee5ecbc4cc7c33f6fb3367ca02a0f9d7c29987f99960405160405180910390a35050565b6000826040516020016109679190613130565b60405160208183030381529060405280519060200120905060005b826000015151811015610aac57816040516020016109a0919061316c565b604051602081830303815290604052805190602001209150826000015181815181106109cf576109ce612f9e565b5b6020026020010151600001516040516020016109eb91906131cf565b60405160208183030381529060405280519060200120915082600001518181518110610a1a57610a19612f9e565b5b602002602001015160200151604051602001610a3691906131cf565b60405160208183030381529060405280519060200120915082600001518181518110610a6557610a64612f9e565b5b602002602001015160400151604051602001610a819190613130565b6040516020818303038152906040528051906020012091508080610aa490613093565b915050610982565b5060005b826020015151811015610bda5781604051602001610ace919061316c565b60405160208183030381529060405280519060200120915082602001518181518110610afd57610afc612f9e565b5b602002602001015160000151604051602001610b1991906131cf565b60405160208183030381529060405280519060200120915082602001518181518110610b4857610b47612f9e565b5b602002602001015160200151604051602001610b6491906131cf565b60405160208183030381529060405280519060200120915082602001518181518110610b9357610b92612f9e565b5b602002602001015160400151604051602001610baf9190613130565b6040516020818303038152906040528051906020012091508080610bd290613093565b915050610ab0565b5060016000848152602001908152602001600020548114610c27576040517fa7161bb500000000000000000000000000000000000000000000000000000000815260040160405180910390fd5b505050565b610c368484610954565b60005b836000015151811015610e4c576002600086815260200190815260200160002084600001518281518110610c7057610c6f612f9e565b5b6020026020010151600001519080600181540180825580915050600190039060005260206000200160009091909190916101000a81548173ffffffffffffffffffffffffffffffffffffffff021916908373ffffffffffffffffffffffffffffffffffffffff16021790555060036000868152602001908152602001600020600085600001518381518110610d0857610d07612f9e565b5b60200260200101516000015173ffffffffffffffffffffffffffffffffffffffff1673ffffffffffffffffffffffffffffffffffffffff168152602001908152602001600020604051806040016040528086600001518481518110610d7057610d6f612f9e565b5b60200260200101516020015173ffffffffffffffffffffffffffffffffffffffff16815260200186600001518481518110610dae57610dad612f9e565b5b602002602001015160400151815250908060018154018082558091505060019003906000526020600020906002020160009091909190915060008201518160000160006101000a81548173ffffffffffffffffffffffffffffffffffffffff021916908373ffffffffffffffffffffffffffffffffffffffff1602179055506020820151816001015550508080610e4490613093565b915050610c39565b5060005b836020015151811015611063576005600086815260200190815260200160002084602001518281518110610e8757610e86612f9e565b5b6020026020010151600001519080600181540180825580915050600190039060005260206000200160009091909190916101000a81548173ffffffffffffffffffffffffffffffffffffffff021916908373ffffffffffffffffffffffffffffffffffffffff16021790555060066000868152602001908152602001600020600085602001518381518110610f1f57610f1e612f9e565b5b60200260200101516000015173ffffffffffffffffffffffffffffffffffffffff1673ffffffffffffffffffffffffffffffffffffffff168152602001908152602001600020604051806040016040528086602001518481518110610f8757610f86612f9e565b5b60200260200101516020015173ffffffffffffffffffffffffffffffffffffffff16815260200186602001518481518110610fc557610fc4612f9e565b5b602002602001015160400151815250908060018154018082558091505060019003906000526020600020906002020160009091909190915060008201518160000160006101000a81548173ffffffffffffffffffffffffffffffffffffffff021916908373ffffffffffffffffffffffffffffffffffffffff160217905550602082015181600101555050808061105b90613093565b915050610e50565b506040518060c001604052803373ffffffffffffffffffffffffffffffffffffffff168152602001858152602001838152602001600015158152602001600015158152602001600081525060008086815260200190815260200160002060008201518160000160006101000a81548173ffffffffffffffffffffffffffffffffffffffff021916908373ffffffffffffffffffffffffffffffffffffffff16021790555060208201518160010155604082015181600201908161112691906133f6565b5060608201518160030160006101000a81548160ff02191690831515021790555060808201518160030160016101000a81548160ff02191690831515021790555060a0820151816004015590505080156111845761118384610453565b5b3373ffffffffffffffffffffffffffffffffffffffff16847f3b759ac3ef801ea4331ea18b56d7bdbd81c475bb31445fb13f886c6845d344c260405160405180910390a350505050565b6111d7816122c8565b60006005600083815260200190815260200160002080548060200260200160405190810160405280929190818152602001828054801561126c57602002820191906000526020600020905b8160009054906101000a900473ffffffffffffffffffffffffffffffffffffffff1673ffffffffffffffffffffffffffffffffffffffff1681526020019060010190808311611222575b5050505050905060005b815181101561156d5760006006600085815260200190815260200160002060008484815181106112a9576112a8612f9e565b5b602002602001015173ffffffffffffffffffffffffffffffffffffffff1673ffffffffffffffffffffffffffffffffffffffff168152602001908152602001600020805480602002602001604051908101604052809291908181526020016000905b8282101561139d57838290600052602060002090600202016040518060400160405290816000820160009054906101000a900473ffffffffffffffffffffffffffffffffffffffff1673ffffffffffffffffffffffffffffffffffffffff1673ffffffffffffffffffffffffffffffffffffffff1681526020016001820154815250508152602001906001019061130b565b5050505090508282815181106113b6576113b5612f9e565b5b602002602001015173ffffffffffffffffffffffffffffffffffffffff166108fc826000815181106113eb576113ea612f9e565b5b6020026020010151602001519081150290604051600060405180830381858888f19350505050158015611422573d6000803e3d6000fd5b506000600190505b815181101561155857600082828151811061144857611447612f9e565b5b60200260200101516000015190508073ffffffffffffffffffffffffffffffffffffffff166323b872dd3087878151811061148657611485612f9e565b5b60200260200101518686815181106114a1576114a0612f9e565b5b6020026020010151602001516040518463ffffffff1660e01b81526004016114cb93929190612feb565b6020604051808303816000875af11580156114ea573d6000803e3d6000fd5b505050506040513d601f19601f8201168201806040525081019061150e9190613037565b611544576040517fd0de58a700000000000000000000000000000000000000000000000000000000815260040160405180910390fd5b50808061155090613093565b91505061142a565b5050808061156590613093565b915050611276565b505050565b61157b816122c8565b611584816123cf565b6004600082815260200190815260200160002060003373ffffffffffffffffffffffffffffffffffffffff1673ffffffffffffffffffffffffffffffffffffffff16815260200190815260200160002060009054906101000a900460ff16611618576040517f273ec65500000000000000000000000000000000000000000000000000000000815260040160405180910390fd5b60006003600083815260200190815260200160002060003373ffffffffffffffffffffffffffffffffffffffff1673ffffffffffffffffffffffffffffffffffffffff168152602001908152602001600020805480602002602001604051908101604052809291908181526020016000905b8282101561171c57838290600052602060002090600202016040518060400160405290816000820160009054906101000a900473ffffffffffffffffffffffffffffffffffffffff1673ffffffffffffffffffffffffffffffffffffffff1673ffffffffffffffffffffffffffffffffffffffff1681526020016001820154815250508152602001906001019061168a565b5050505090503373ffffffffffffffffffffffffffffffffffffffff166108fc826000815181106117505761174f612f9e565b5b6020026020010151602001519081150290604051600060405180830381858888f19350505050158015611787573d6000803e3d6000fd5b506000600190505b81518110156118a35760008282815181106117ad576117ac612f9e565b5b60200260200101516000015190508073ffffffffffffffffffffffffffffffffffffffff166323b872dd30338686815181106117ec576117eb612f9e565b5b6020026020010151602001516040518463ffffffff1660e01b815260040161181693929190612feb565b6020604051808303816000875af1158015611835573d6000803e3d6000fd5b505050506040513d601f19601f820116820180604052508101906118599190613037565b61188f576040517fd0de58a700000000000000000000000000000000000000000000000000000000815260040160405180910390fd5b50808061189b90613093565b91505061178f565b5060006004600084815260200190815260200160002060003373ffffffffffffffffffffffffffffffffffffffff1673ffffffffffffffffffffffffffffffffffffffff16815260200190815260200160002060006101000a81548160ff0219169083151502179055506001600080848152602001908152602001600020600401600082825461193391906134c8565b925050819055503373ffffffffffffffffffffffffffffffffffffffff16827f7a64a273239dffa85aefd3c23dbbe63db3c2825d9857c16420dbd264bef3ef4b60405160405180910390a35050565b606061198d826122c8565b60026000838152602001908152602001600020805480602002602001604051908101604052809291908181526020018280548015611a2057602002820191906000526020600020905b8160009054906101000a900473ffffffffffffffffffffffffffffffffffffffff1673ffffffffffffffffffffffffffffffffffffffff16815260200190600101908083116119d6575b50505050509050919050565b6060611a37826122c8565b60056000838152602001908152602001600020805480602002602001604051908101604052809291908181526020018280548015611aca57602002820191906000526020600020905b8160009054906101000a900473ffffffffffffffffffffffffffffffffffffffff1673ffffffffffffffffffffffffffffffffffffffff1681526020019060010190808311611a80575b50505050509050919050565b611adf816122c8565b611ae88161245f565b6004600082815260200190815260200160002060003373ffffffffffffffffffffffffffffffffffffffff1673ffffffffffffffffffffffffffffffffffffffff16815260200190815260200160002060009054906101000a900460ff1615611b7d576040517f444be25c00000000000000000000000000000000000000000000000000000000815260040160405180910390fd5b600160008083815260200190815260200160002060030160016101000a81548160ff02191690831515021790555060005b6002600083815260200190815260200160002080549050811015611f2a576000600260008481526020019081526020016000208281548110611bf357611bf2612f9e565b5b9060005260206000200160009054906101000a900473ffffffffffffffffffffffffffffffffffffffff1690506004600084815260200190815260200160002060008273ffffffffffffffffffffffffffffffffffffffff1673ffffffffffffffffffffffffffffffffffffffff16815260200190815260200160002060009054906101000a900460ff16611c885750611f17565b60006003600085815260200190815260200160002060008373ffffffffffffffffffffffffffffffffffffffff1673ffffffffffffffffffffffffffffffffffffffff168152602001908152602001600020805480602002602001604051908101604052809291908181526020016000905b82821015611d8c57838290600052602060002090600202016040518060400160405290816000820160009054906101000a900473ffffffffffffffffffffffffffffffffffffffff1673ffffffffffffffffffffffffffffffffffffffff1673ffffffffffffffffffffffffffffffffffffffff16815260200160018201548152505081526020019060010190611cfa565b5050505090508173ffffffffffffffffffffffffffffffffffffffff166108fc82600081518110611dc057611dbf612f9e565b5b6020026020010151602001519081150290604051600060405180830381858888f19350505050158015611df7573d6000803e3d6000fd5b506000600190505b8151811015611f13576000828281518110611e1d57611e1c612f9e565b5b60200260200101516000015190508073ffffffffffffffffffffffffffffffffffffffff166323b872dd3086868681518110611e5c57611e5b612f9e565b5b6020026020010151602001516040518463ffffffff1660e01b8152600401611e8693929190612feb565b6020604051808303816000875af1158015611ea5573d6000803e3d6000fd5b505050506040513d601f19601f82011682018060405250810190611ec99190613037565b611eff576040517fd0de58a700000000000000000000000000000000000000000000000000000000815260040160405180910390fd5b508080611f0b90613093565b915050611dff565b5050505b8080611f2290613093565b915050611bae565b50807fb85e553db1cc947378f2f2d6071d3e64a20a8d3896fee3d15a5087372164e97c60405160405180910390a250565b611f6361263a565b611f6c826122c8565b6000808381526020019081526020016000206040518060c00160405290816000820160009054906101000a900473ffffffffffffffffffffffffffffffffffffffff1673ffffffffffffffffffffffffffffffffffffffff1673ffffffffffffffffffffffffffffffffffffffff16815260200160018201548152602001600282018054611ff990613219565b80601f016020809104026020016040519081016040528092919081815260200182805461202590613219565b80156120725780601f1061204757610100808354040283529160200191612072565b820191906000526020600020905b81548152906001019060200180831161205557829003601f168201915b505050505081526020016003820160009054906101000a900460ff161515151581526020016003820160019054906101000a900460ff161515151581526020016004820154815250509050919050565b60606120cd836122c8565b6006600084815260200190815260200160002060008373ffffffffffffffffffffffffffffffffffffffff1673ffffffffffffffffffffffffffffffffffffffff168152602001908152602001600020805480602002602001604051908101604052809291908181526020016000905b828210156121cf57838290600052602060002090600202016040518060400160405290816000820160009054906101000a900473ffffffffffffffffffffffffffffffffffffffff1673ffffffffffffffffffffffffffffffffffffffff1673ffffffffffffffffffffffffffffffffffffffff1681526020016001820154815250508152602001906001019061213d565b50505050905092915050565b60006121e6836122c8565b6004600084815260200190815260200160002060008373ffffffffffffffffffffffffffffffffffffffff1673ffffffffffffffffffffffffffffffffffffffff16815260200190815260200160002060009054906101000a900460ff16905092915050565b612255826124fc565b61225d6125b3565b6000801b6001600084815260200190815260200160002054146122ac576040517f0451caad00000000000000000000000000000000000000000000000000000000815260040160405180910390fd5b8060016000848152602001908152602001600020819055505050565b6000600260008381526020019081526020016000208054905003612318576040517f0451caad00000000000000000000000000000000000000000000000000000000815260040160405180910390fd5b60008082815260200190815260200160002060030160009054906101000a900460ff1615612372576040517fbd57bd4f00000000000000000000000000000000000000000000000000000000815260040160405180910390fd5b60008082815260200190815260200160002060030160019054906101000a900460ff16156123cc576040517fd57c882500000000000000000000000000000000000000000000000000000000815260040160405180910390fd5b50565b60006003600083815260200190815260200160002060003373ffffffffffffffffffffffffffffffffffffffff1673ffffffffffffffffffffffffffffffffffffffff168152602001908152602001600020805490500361245c576040517faa7e985a00000000000000000000000000000000000000000000000000000000815260040160405180910390fd5b50565b60008082815260200190815260200160002060000160009054906101000a900473ffffffffffffffffffffffffffffffffffffffff1673ffffffffffffffffffffffffffffffffffffffff163373ffffffffffffffffffffffffffffffffffffffff16146124f9576040517f6c94d36e00000000000000000000000000000000000000000000000000000000815260040160405180910390fd5b50565b60008082815260200190815260200160002060030160009054906101000a900460ff1615612556576040517fbd57bd4f00000000000000000000000000000000000000000000000000000000815260040160405180910390fd5b60008082815260200190815260200160002060030160019054906101000a900460ff16156125b0576040517fd57c882500000000000000000000000000000000000000000000000000000000815260040160405180910390fd5b50565b7f000000000000000000000000000000000000000000000000000000000000000073ffffffffffffffffffffffffffffffffffffffff163373ffffffffffffffffffffffffffffffffffffffff1614612638576040517fba0b09a700000000000000000000000000000000000000000000000000000000815260040160405180910390fd5b565b6040518060c00160405280600073ffffffffffffffffffffffffffffffffffffffff1681526020016000815260200160608152602001600015158152602001600015158152602001600081525090565b6000604051905090565b600080fd5b600080fd5b6000819050919050565b6126b18161269e565b81146126bc57600080fd5b50565b6000813590506126ce816126a8565b92915050565b600073ffffffffffffffffffffffffffffffffffffffff82169050919050565b60006126ff826126d4565b9050919050565b61270f816126f4565b811461271a57600080fd5b50565b60008135905061272c81612706565b92915050565b6000806040838503121561274957612748612694565b5b6000612757858286016126bf565b92505060206127688582860161271d565b9150509250929050565b600081519050919050565b600082825260208201905092915050565b6000819050602082019050919050565b6127a7816126f4565b82525050565b6127b68161269e565b82525050565b6040820160008201516127d2600085018261279e565b5060208201516127e560208501826127ad565b50505050565b60006127f783836127bc565b60408301905092915050565b6000602082019050919050565b600061281b82612772565b612825818561277d565b93506128308361278e565b8060005b8381101561286157815161284888826127eb565b975061285383612803565b925050600181019050612834565b5085935050505092915050565b600060208201905081810360008301526128888184612810565b905092915050565b6000602082840312156128a6576128a5612694565b5b60006128b4848285016126bf565b91505092915050565b600080fd5b6000601f19601f8301169050919050565b7f4e487b7100000000000000000000000000000000000000000000000000000000600052604160045260246000fd5b61290b826128c2565b810181811067ffffffffffffffff8211171561292a576129296128d3565b5b80604052505050565b600061293d61268a565b90506129498282612902565b919050565b600080fd5b600080fd5b600067ffffffffffffffff821115612973576129726128d3565b5b602082029050602081019050919050565b600080fd5b60006060828403121561299f5761299e6128bd565b5b6129a96060612933565b905060006129b98482850161271d565b60008301525060206129cd8482850161271d565b60208301525060406129e1848285016126bf565b60408301525092915050565b6000612a006129fb84612958565b612933565b90508083825260208201905060608402830185811115612a2357612a22612984565b5b835b81811015612a4c5780612a388882612989565b845260208401935050606081019050612a25565b5050509392505050565b600082601f830112612a6b57612a6a612953565b5b8135612a7b8482602086016129ed565b91505092915050565b600060408284031215612a9a57612a996128bd565b5b612aa46040612933565b9050600082013567ffffffffffffffff811115612ac457612ac361294e565b5b612ad084828501612a56565b600083015250602082013567ffffffffffffffff811115612af457612af361294e565b5b612b0084828501612a56565b60208301525092915050565b60008060408385031215612b2357612b22612694565b5b6000612b31858286016126bf565b925050602083013567ffffffffffffffff811115612b5257612b51612699565b5b612b5e85828601612a84565b9150509250929050565b600080fd5b600067ffffffffffffffff821115612b8857612b876128d3565b5b612b91826128c2565b9050602081019050919050565b82818337600083830152505050565b6000612bc0612bbb84612b6d565b612933565b905082815260208101848484011115612bdc57612bdb612b68565b5b612be7848285612b9e565b509392505050565b600082601f830112612c0457612c03612953565b5b8135612c14848260208601612bad565b91505092915050565b60008115159050919050565b612c3281612c1d565b8114612c3d57600080fd5b50565b600081359050612c4f81612c29565b92915050565b60008060008060808587031215612c6f57612c6e612694565b5b6000612c7d878288016126bf565b945050602085013567ffffffffffffffff811115612c9e57612c9d612699565b5b612caa87828801612a84565b935050604085013567ffffffffffffffff811115612ccb57612cca612699565b5b612cd787828801612bef565b9250506060612ce887828801612c40565b91505092959194509250565b600081519050919050565b600082825260208201905092915050565b6000819050602082019050919050565b6000612d2c838361279e565b60208301905092915050565b6000602082019050919050565b6000612d5082612cf4565b612d5a8185612cff565b9350612d6583612d10565b8060005b83811015612d96578151612d7d8882612d20565b9750612d8883612d38565b925050600181019050612d69565b5085935050505092915050565b60006020820190508181036000830152612dbd8184612d45565b905092915050565b600081519050919050565b600082825260208201905092915050565b60005b83811015612dff578082015181840152602081019050612de4565b60008484015250505050565b6000612e1682612dc5565b612e208185612dd0565b9350612e30818560208601612de1565b612e39816128c2565b840191505092915050565b612e4d81612c1d565b82525050565b600060c083016000830151612e6b600086018261279e565b506020830151612e7e60208601826127ad565b5060408301518482036040860152612e968282612e0b565b9150506060830151612eab6060860182612e44565b506080830151612ebe6080860182612e44565b5060a0830151612ed160a08601826127ad565b508091505092915050565b60006020820190508181036000830152612ef68184612e53565b905092915050565b612f0781612c1d565b82525050565b6000602082019050612f226000830184612efe565b92915050565b6000819050919050565b612f3b81612f28565b8114612f4657600080fd5b50565b600081359050612f5881612f32565b92915050565b60008060408385031215612f7557612f74612694565b5b6000612f83858286016126bf565b9250506020612f9485828601612f49565b9150509250929050565b7f4e487b7100000000000000000000000000000000000000000000000000000000600052603260045260246000fd5b612fd6816126f4565b82525050565b612fe58161269e565b82525050565b60006060820190506130006000830186612fcd565b61300d6020830185612fcd565b61301a6040830184612fdc565b949350505050565b60008151905061303181612c29565b92915050565b60006020828403121561304d5761304c612694565b5b600061305b84828501613022565b91505092915050565b7f4e487b7100000000000000000000000000000000000000000000000000000000600052601160045260246000fd5b600061309e8261269e565b91507fffffffffffffffffffffffffffffffffffffffffffffffffffffffffffffffff82036130d0576130cf613064565b5b600182019050919050565b60006130e68261269e565b91506130f18361269e565b925082820190508082111561310957613108613064565b5b92915050565b6000819050919050565b61312a6131258261269e565b61310f565b82525050565b600061313c8284613119565b60208201915081905092915050565b6000819050919050565b61316661316182612f28565b61314b565b82525050565b60006131788284613155565b60208201915081905092915050565b60008160601b9050919050565b600061319f82613187565b9050919050565b60006131b182613194565b9050919050565b6131c96131c4826126f4565b6131a6565b82525050565b60006131db82846131b8565b60148201915081905092915050565b7f4e487b7100000000000000000000000000000000000000000000000000000000600052602260045260246000fd5b6000600282049050600182168061323157607f821691505b602082108103613244576132436131ea565b5b50919050565b60008190508160005260206000209050919050565b60006020601f8301049050919050565b600082821b905092915050565b6000600883026132ac7fffffffffffffffffffffffffffffffffffffffffffffffffffffffffffffffff8261326f565b6132b6868361326f565b95508019841693508086168417925050509392505050565b6000819050919050565b60006132f36132ee6132e98461269e565b6132ce565b61269e565b9050919050565b6000819050919050565b61330d836132d8565b613321613319826132fa565b84845461327c565b825550505050565b600090565b613336613329565b613341818484613304565b505050565b5b818110156133655761335a60008261332e565b600181019050613347565b5050565b601f8211156133aa5761337b8161324a565b6133848461325f565b81016020851015613393578190505b6133a761339f8561325f565b830182613346565b50505b505050565b600082821c905092915050565b60006133cd600019846008026133af565b1980831691505092915050565b60006133e683836133bc565b9150826002028217905092915050565b6133ff82612dc5565b67ffffffffffffffff811115613418576134176128d3565b5b6134228254613219565b61342d828285613369565b600060209050601f831160018114613460576000841561344e578287015190505b61345885826133da565b8655506134c0565b601f19841661346e8661324a565b60005b8281101561349657848901518255600182019150602085019450602081019050613471565b868310156134b357848901516134af601f8916826133bc565b8355505b6001600288020188555050505b505050505050565b60006134d38261269e565b91506134de8361269e565b92508282039050818111156134f6576134f5613064565b5b9291505056fea26469706673582212204d43ab128ac893718353673154522facce172b3e7b8bfbabd8f79be7cd5c814c64736f6c63430008120033",
  "linkReferences": {},
  "deployedLinkReferences": {}
}